{
  "_format": "hh-sol-artifact-1",
  "contractName": "Zauktion",
  "sourceName": "contracts/Zauktion.sol",
  "abi": [
    {
      "anonymous": false,
      "inputs": [
        {
          "indexed": true,
          "internalType": "address",
          "name": "previousOwner",
          "type": "address"
        },
        {
          "indexed": true,
          "internalType": "address",
          "name": "newOwner",
          "type": "address"
        }
      ],
      "name": "OwnershipTransferred",
      "type": "event"
    },
    {
      "inputs": [],
      "name": "auctionId",
      "outputs": [
        {
          "internalType": "uint256",
          "name": "",
          "type": "uint256"
        }
      ],
      "stateMutability": "view",
      "type": "function"
    },
    {
      "inputs": [],
      "name": "auctionVerifier",
      "outputs": [
        {
          "internalType": "address",
          "name": "",
          "type": "address"
        }
      ],
      "stateMutability": "view",
      "type": "function"
    },
    {
      "inputs": [
        {
          "internalType": "uint256",
          "name": "_y",
          "type": "uint256"
        },
        {
          "internalType": "uint256",
          "name": "_nullifier",
          "type": "uint256"
        },
        {
          "internalType": "uint256",
          "name": "_idCommitment",
          "type": "uint256"
        },
        {
          "internalType": "uint256",
          "name": "_winningCommitment",
          "type": "uint256"
        },
        {
          "internalType": "uint256[2]",
          "name": "_proof_a",
          "type": "uint256[2]"
        },
        {
          "internalType": "uint256[2][2]",
          "name": "_proof_b",
          "type": "uint256[2][2]"
        },
        {
          "internalType": "uint256[2]",
          "name": "_proof_c",
          "type": "uint256[2]"
        }
      ],
      "name": "bid",
      "outputs": [],
      "stateMutability": "payable",
      "type": "function"
    },
    {
      "inputs": [],
      "name": "bidDue",
      "outputs": [
        {
          "internalType": "uint256",
          "name": "",
          "type": "uint256"
        }
      ],
      "stateMutability": "view",
      "type": "function"
    },
    {
      "inputs": [
        {
          "internalType": "uint256",
          "name": "_idCommitment",
          "type": "uint256"
        },
        {
          "internalType": "uint256[2]",
          "name": "_proof_a",
          "type": "uint256[2]"
        },
        {
          "internalType": "uint256[2][2]",
          "name": "_proof_b",
          "type": "uint256[2][2]"
        },
        {
          "internalType": "uint256[2]",
          "name": "_proof_c",
          "type": "uint256[2]"
        }
      ],
      "name": "claimPrize",
      "outputs": [],
      "stateMutability": "payable",
      "type": "function"
    },
    {
      "inputs": [],
      "name": "entraceStake",
      "outputs": [
        {
          "internalType": "uint256",
          "name": "",
          "type": "uint256"
        }
      ],
      "stateMutability": "view",
      "type": "function"
    },
    {
      "inputs": [],
      "name": "finalBid",
      "outputs": [
        {
          "internalType": "uint256",
          "name": "",
          "type": "uint256"
        }
      ],
      "stateMutability": "view",
      "type": "function"
    },
    {
      "inputs": [
        {
          "internalType": "uint256",
          "name": "",
          "type": "uint256"
        }
      ],
      "name": "idCommitmentToWinnerCommitment",
      "outputs": [
        {
          "internalType": "uint256",
          "name": "",
          "type": "uint256"
        }
      ],
      "stateMutability": "view",
      "type": "function"
    },
    {
      "inputs": [],
      "name": "idVerifier",
      "outputs": [
        {
          "internalType": "address",
          "name": "",
          "type": "address"
        }
      ],
      "stateMutability": "view",
      "type": "function"
    },
    {
      "inputs": [],
      "name": "owner",
      "outputs": [
        {
          "internalType": "address",
          "name": "",
          "type": "address"
        }
      ],
      "stateMutability": "view",
      "type": "function"
    },
    {
      "inputs": [],
      "name": "prizeVault",
      "outputs": [
        {
          "internalType": "address",
          "name": "",
          "type": "address"
        }
      ],
      "stateMutability": "view",
      "type": "function"
    },
    {
      "inputs": [],
      "name": "renounceOwnership",
      "outputs": [],
      "stateMutability": "nonpayable",
      "type": "function"
    },
    {
      "inputs": [
        {
          "internalType": "uint256",
          "name": "_y",
          "type": "uint256"
        },
        {
          "internalType": "uint256",
          "name": "_nullifier",
          "type": "uint256"
        },
        {
          "internalType": "uint256",
          "name": "_idCommitment",
          "type": "uint256"
        },
        {
          "internalType": "uint256",
          "name": "_winningCommitment",
          "type": "uint256"
        },
        {
          "internalType": "uint256[2]",
          "name": "_proof_a",
          "type": "uint256[2]"
        },
        {
          "internalType": "uint256[2][2]",
          "name": "_proof_b",
          "type": "uint256[2][2]"
        },
        {
          "internalType": "uint256[2]",
          "name": "_proof_c",
          "type": "uint256[2]"
        }
      ],
      "name": "revealBid",
      "outputs": [],
      "stateMutability": "nonpayable",
      "type": "function"
    },
    {
      "inputs": [],
      "name": "revealDue",
      "outputs": [
        {
          "internalType": "uint256",
          "name": "",
          "type": "uint256"
        }
      ],
      "stateMutability": "view",
      "type": "function"
    },
    {
      "inputs": [],
      "name": "revealWinner",
      "outputs": [],
      "stateMutability": "nonpayable",
      "type": "function"
    },
    {
      "inputs": [
        {
          "internalType": "uint256",
          "name": "",
          "type": "uint256"
        }
      ],
      "name": "revealedBid",
      "outputs": [
        {
          "internalType": "uint256",
          "name": "bid",
          "type": "uint256"
        },
        {
          "internalType": "uint256",
          "name": "winningCommitment",
          "type": "uint256"
        }
      ],
      "stateMutability": "view",
      "type": "function"
    },
    {
      "inputs": [
        {
          "internalType": "uint256",
          "name": "_auctionId",
          "type": "uint256"
        },
        {
          "internalType": "uint256",
          "name": "_entraceStake",
          "type": "uint256"
        },
        {
          "internalType": "uint256",
          "name": "_bidDue",
          "type": "uint256"
        },
        {
          "internalType": "uint256",
          "name": "_revealDue",
          "type": "uint256"
        },
        {
          "internalType": "address",
          "name": "_auctionVerifier",
          "type": "address"
        },
        {
          "internalType": "address",
          "name": "_idVerifier",
          "type": "address"
        },
        {
          "internalType": "address",
          "name": "_vault",
          "type": "address"
        }
      ],
      "name": "setAuction",
      "outputs": [],
      "stateMutability": "nonpayable",
      "type": "function"
    },
    {
      "inputs": [
        {
          "internalType": "address",
          "name": "newOwner",
          "type": "address"
        }
      ],
      "name": "transferOwnership",
      "outputs": [],
      "stateMutability": "nonpayable",
      "type": "function"
    },
    {
      "inputs": [],
      "name": "winnerCommitment",
      "outputs": [
        {
          "internalType": "uint256",
          "name": "",
          "type": "uint256"
        }
      ],
      "stateMutability": "view",
      "type": "function"
    },
    {
      "inputs": [
        {
          "internalType": "uint256",
          "name": "",
          "type": "uint256"
        }
      ],
      "name": "yList",
      "outputs": [
        {
          "internalType": "uint256",
          "name": "",
          "type": "uint256"
        }
      ],
      "stateMutability": "view",
      "type": "function"
    }
  ],
  "bytecode": "0x608060405234801561001057600080fd5b5061001a3361001f565b61006f565b600080546001600160a01b038381166001600160a01b0319831681178455604051919092169283917f8be0079c531659141344cd1fd0a4f28419497f9722a3daafe3b4186f6b6457e09190a35050565b6110738061007e6000396000f3fe60806040526004361061015f5760003560e01c80638da5cb5b116100c0578063ce40c3cc11610074578063e3f12ed211610059578063e3f12ed21461037c578063f2fde38b14610392578063f85ae636146103b257600080fd5b8063ce40c3cc14610346578063ddf722a41461035c57600080fd5b80639686a91b116100a55780639686a91b146102e35780639e1a3194146102f9578063b49508bf1461032657600080fd5b80638da5cb5b146102af5780638ed768a2146102cd57600080fd5b806366a08fad116101175780636c699905116100fc5780636c69990514610258578063715018a61461026d5780637617584e1461028257600080fd5b806366a08fad14610225578063676a3a971461023857600080fd5b8063323d729211610148578063323d7292146101a35780636358fbb7146101db57806363c281fa146101f057600080fd5b806310782f8f146101645780632d1dab621461018d575b600080fd5b34801561017057600080fd5b5061017a60015481565b6040519081526020015b60405180910390f35b34801561019957600080fd5b5061017a60085481565b3480156101af57600080fd5b506006546101c3906001600160a01b031681565b6040516001600160a01b039091168152602001610184565b6101ee6101e9366004610e8f565b6103d2565b005b3480156101fc57600080fd5b5061021061020b366004610dbe565b6104df565b60408051928352602083019190915201610184565b6101ee610233366004610dd6565b61050d565b34801561024457600080fd5b506007546101c3906001600160a01b031681565b34801561026457600080fd5b506101ee61070b565b34801561027957600080fd5b506101ee6107e3565b34801561028e57600080fd5b5061017a61029d366004610dbe565b600b6020526000908152604090205481565b3480156102bb57600080fd5b506000546001600160a01b03166101c3565b3480156102d957600080fd5b5061017a60095481565b3480156102ef57600080fd5b5061017a60025481565b34801561030557600080fd5b5061017a610314366004610dbe565b600a6020526000908152604090205481565b34801561033257600080fd5b506101ee610341366004610e8f565b610849565b34801561035257600080fd5b5061017a60035481565b34801561036857600080fd5b506101ee610377366004610e26565b610aa4565b34801561038857600080fd5b5061017a60045481565b34801561039e57600080fd5b506101ee6103ad366004610d7d565b610b6d565b3480156103be57600080fd5b506005546101c3906001600160a01b031681565b6003544211156103e157600080fd5b6002543410156103f057600080fd5b6005546040805160c08101825260018082525460208201528082018a9052606081018990526080810188905260a0810187905290517ff398789b0000000000000000000000000000000000000000000000000000000081526001600160a01b039092169163f398789b9161046d9187918791879190600401610f86565b60206040518083038186803b15801561048557600080fd5b505afa158015610499573d6000803e3d6000fd5b505050506040513d601f19601f820116820180604052508101906104bd9190610d9e565b6104c657600080fd5b505050600091825250600b602052604090209190915550565b600c81815481106104ef57600080fd5b60009182526020909120600290910201805460019091015490915082565b6000848152600a6020908152604091829020546006548351808501855288815292830182905292517ff5c9d69e00000000000000000000000000000000000000000000000000000000815290926001600160a01b03169163f5c9d69e9161057c91889188918891600401610f46565b60206040518083038186803b15801561059457600080fd5b505afa1580156105a8573d6000803e3d6000fd5b505050506040513d601f19601f820116820180604052508101906105cc9190610d9e565b6105d557600080fd5b600954811415610665576008543410156105ee57600080fd5b6007546040517ff2fde38b0000000000000000000000000000000000000000000000000000000081523360048201526001600160a01b039091169063f2fde38b90602401600060405180830381600087803b15801561064c57600080fd5b505af1158015610660573d6000803e3d6000fd5b505050505b60025460405160009133918381818185875af1925050503d80600081146106a8576040519150601f19603f3d011682016040523d82523d6000602084013e6106ad565b606091505b50509050806107035760405162461bcd60e51b815260206004820152601060248201527f5472616e73666572206661696c65642e0000000000000000000000000000000060448201526064015b60405180910390fd5b505050505050565b60045442101561071a57600080fd5b60008060005b600c548110156107d75782600c828154811061074c57634e487b7160e01b600052603260045260246000fd5b90600052602060002090600202016000015411156107cf57600c818154811061078557634e487b7160e01b600052603260045260246000fd5b9060005260206000209060020201600001549250600c81815481106107ba57634e487b7160e01b600052603260045260246000fd5b90600052602060002090600202016001015491505b600101610720565b50600891909155600955565b6000546001600160a01b0316331461083d5760405162461bcd60e51b815260206004820181905260248201527f4f776e61626c653a2063616c6c6572206973206e6f7420746865206f776e657260448201526064016106fa565b6108476000610c4f565b565b60045442111561085857600080fd5b6005546040805160c0810182526002815260015460208201528082018a9052606081018990526080810188905260a0810187905290517ff398789b0000000000000000000000000000000000000000000000000000000081526001600160a01b039092169163f398789b916108d69187918791879190600401610f86565b60206040518083038186803b1580156108ee57600080fd5b505afa158015610902573d6000803e3d6000fd5b505050506040513d601f19601f820116820180604052508101906109269190610d9e565b61092f57600080fd5b600654604080518082018252878152600954602082015290517ff5c9d69e0000000000000000000000000000000000000000000000000000000081526001600160a01b039092169163f5c9d69e916109909187918791879190600401610f46565b60206040518083038186803b1580156109a857600080fd5b505afa1580156109bc573d6000803e3d6000fd5b505050506040513d601f19601f820116820180604052508101906109e09190610d9e565b6109e957600080fd5b6000858152600b602052604081205490610a03828a61101a565b90506000610a11828461101a565b60408051808201825291825260208083018a8152600c8054600181018255600091825294517fdf6966c971051c3d54ec59162606531493a51404a002842f56009d7e5cf4a8c760029096029586015590517fdf6966c971051c3d54ec59162606531493a51404a002842f56009d7e5cf4a8c890940193909355998252600a90995297909720959095555050505050505050565b6000546001600160a01b03163314610afe5760405162461bcd60e51b815260206004820181905260248201527f4f776e61626c653a2063616c6c6572206973206e6f7420746865206f776e657260448201526064016106fa565b600196909655600393909355600491909155600580547fffffffffffffffffffffffff00000000000000000000000000000000000000009081166001600160a01b0393841617909155600680548216938316939093179092556002929092556007805490911691909216179055565b6000546001600160a01b03163314610bc75760405162461bcd60e51b815260206004820181905260248201527f4f776e61626c653a2063616c6c6572206973206e6f7420746865206f776e657260448201526064016106fa565b6001600160a01b038116610c435760405162461bcd60e51b815260206004820152602660248201527f4f776e61626c653a206e6577206f776e657220697320746865207a65726f206160448201527f646472657373000000000000000000000000000000000000000000000000000060648201526084016106fa565b610c4c81610c4f565b50565b600080546001600160a01b038381167fffffffffffffffffffffffff0000000000000000000000000000000000000000831681178455604051919092169283917f8be0079c531659141344cd1fd0a4f28419497f9722a3daafe3b4186f6b6457e09190a35050565b80356001600160a01b0381168114610cce57600080fd5b919050565b600082601f830112610ce3578081fd5b610ceb610fe3565b808385608086011115610cfc578384fd5b835b6002811015610d2857610d118783610d33565b845260209093019260409190910190600101610cfe565b509095945050505050565b600082601f830112610d43578081fd5b610d4b610fe3565b808385604086011115610d5c578384fd5b835b6002811015610d28578135845260209384019390910190600101610d5e565b600060208284031215610d8e578081fd5b610d9782610cb7565b9392505050565b600060208284031215610daf578081fd5b81518015158114610d97578182fd5b600060208284031215610dcf578081fd5b5035919050565b6000806000806101208587031215610dec578283fd5b84359350610dfd8660208701610d33565b9250610e0c8660608701610cd3565b9150610e1b8660e08701610d33565b905092959194509250565b600080600080600080600060e0888a031215610e40578283fd5b87359650602088013595506040880135945060608801359350610e6560808901610cb7565b9250610e7360a08901610cb7565b9150610e8160c08901610cb7565b905092959891949750929550565b6000806000806000806000610180888a031215610eaa578283fd5b87359650602088013595506040880135945060608801359350610ed08960808a01610d33565b9250610edf8960c08a01610cd3565b9150610e81896101408a01610d33565b8060005b6002811015610f1d57610f07848351610f23565b6040939093019260209190910190600101610ef3565b50505050565b8060005b6002811015610f1d578151845260209384019390910190600101610f27565b6101408101610f558287610f23565b610f626040830186610eef565b610f6f60c0830185610f23565b610f7d610100830184610f23565b95945050505050565b6101c08101610f958287610f23565b610fa26040830186610eef565b610faf60c0830185610f23565b61010082018360005b6006811015610fd7578151835260209283019290910190600101610fb8565b50505095945050505050565b6040805190810167ffffffffffffffff8111828210171561101457634e487b7160e01b600052604160045260246000fd5b60405290565b60008282101561103857634e487b7160e01b81526011600452602481fd5b50039056fea2646970667358221220996fa6087f8c958966ac830a192646d0138b06cedf3b0de0b28bc4a903d5d13e64736f6c63430008040033",
  "linkReferences": {},
  "deployedLinkReferences": {}
}